:020000040000FA
:10000000600200104D01000051010000530100008A
:1000100055010000570100005901000000000000D8
:100020000000000000000000000000005B01000074
:100030005D010000000000005F01000061010000A0
:100040006301000063010000630100006301000020
:100050006301000063010000630100006301000010
:100060006301000063010000630100006301000000
:1000700063010000630100006301000063010000F0
:1000800063010000630100006301000063010000E0
:1000900063010000630100006301000063010000D0
:1000A00063010000630100006301000063010000C0
:1000B00063010000630100006301000063010000B0
:1000C0006301000000F002F800F033F80AA090E8A5
:1000D000000C82448344AAF10107DA4501D100F003
:1000E00028F8AFF2090EBAE80F0013F0010F18BF9D
:1000F000FB1A43F0010318475C0600006C06000081
:100100000023002400250026103A28BF78C1FBD820
:10011000520728BF30C148BF0B607047642900F008
:100120006980002070471FB5AFF300801FBD10B578
:1001300010BD00F0EAFA1146FFF7F5FF00F07EF976
:1001400000F0B9F8FFF7F3FF00F0C0F808480047E7
:10015000FEE7FEE7FEE7FEE7FEE7FEE7FEE7FEE777
:10016000FEE7FEE703480449024A044B70470000DB
:10017000C500000060000010600200106000001068
:100180000FB408491CB506AB6A467944009005983F
:1001900000F071F80020694600F080F81CBC5DF8A2
:1001A00014FB00000F01000070B50446856900686B
:1001B0003026C10600D42026C00709D106E0D4E9C4
:1001C000012130469047206A401C20626D1EF6D502
:1001D00070BD70B5044685690068C00709D006E0A7
:1001E000D4E9012120209047206A401C20626D1E26
:1001F000F6D570BD2DE9F0418046002610687529BE
:10020000414614A511D0AFF30080002802DA404225
:1002100011A508E0D8F800108A0701D50FA502E063
:10022000490704D50EA5012601E0AFF300800024A4
:1002300008F1240704E000F036F830313955641C29
:100240000028F8D133462A4621464046BDE8F04111
:1002500000F004BA000000002D0000002B00000098
:1002600020000000704770477047000001694A1C79
:1002700002610878704710B50C46194690B0CDE978
:10028000024200220692044A7A44CDE9042001A8E1
:1002900000F040F910B010BDE1FFFFFF0A6802F85E
:1002A000010B0A6070474FF00A01B0FBF1F202FB4C
:1002B0001101104670470446AFF300802046FFF757
:1002C00041FF0000004870470000001003494FF054
:1002D0001800ABBE704700000900000026000200B5
:1002E0007047040000080000000000000002000148
:1002F000000010000000000000000000FFFFFFFFF2
:10030000002205E0002100E0491C6429FCDB521CAE
:100310008242F7D3704710B504467148C06940F473
:10032000FF006F49C8610846806940EAC4308861AF
:100330000846C06940F48060C8610846806940F49E
:10034000006088616420FFF7DBFF6548C06940F406
:1003500000606349C86110BD00B56148006840F4A1
:10036000FF005F4908600846006840F4806008604C
:100370000846006840F4006008603820FFF7CBFFB3
:100380000E20FFF7C8FF0120FFF7C5FF8020FFF711
:10039000C2FF00BD10B504465148C06940F4FF00DB
:1003A0004F49C8610846806940EAC4308861084600
:1003B000806940F4806088610846806940F400608C
:1003C00088616420FFF79CFF4548C06940F40060E5
:1003D0004349C86110BD10B5044603E02078FFF71B
:1003E000D9FF641C20780028F8D110BD30B5044630
:1003F0007CB10A20B4FBF0F52846FFF7F7FF0A208E
:10040000B4FBF0F100FB11403030C5B22846FFF7D5
:10041000C1FF30BD70B506460C46082E0DDA4022ED
:1004200002EBC601C8B2FFF776FF002503E0605D6E
:10043000FFF7B0FF6D1C082DF9DB70BD10B58CB057
:100440002848006840F400702649C439C1F8C40047
:100450000020254908730120087240F2E97088875E
:10046000092021493831087001201F492C310870BA
:100470000A20091F08701920091F08700C20091F85
:100480000870FFF769FF29E0174820300478164804
:10049000838F009390F8383010F82C2F13A102A806
:1004A000FFF76EFE104890F82030009390F824304B
:1004B00090F8282012A107A8FFF762FE8020FFF71E
:1004C0002AFF02A8FFF787FFC020FFF724FF07A835
:1004D000FFF781FF0020FFF75DFF00BFD4E70000BA
:1004E00000C00920C4C00F400040024044415445B0
:1004F0003A253032642D253032642D2530346400A5
:1005000054494D453A253032643A253032643A2513
:10051000303264002DE9F05F4FF0000B044689464D
:100520004FF0010AC0F820B02046E1688847002853
:100530007DD0252802D0D4E9012185E0464F002650
:100540007F442046E16888472028054607DB312D97
:1005500005D2781910F8200C08B10643F1E7B0076E
:1005600001D526F00406C4F81CB00027C4F818B062
:100570002A2D10D1204659F8041B04EB8702916103
:10058000E1688847012F054628D1E069002830DA64
:1005900026F020062DE0A5F1300052460A2801463B
:1005A0001AD2CAB104EB870092468046816108E006
:1005B000D8F8180000EB800005EB40003038C8F890
:1005C00018002046E168884705465046A5F13001ED
:1005D0000A2901D20028EBD1012F0AD02E2D08D1F3
:1005E0002046E16888477F1C0546022F46F020061A
:1005F000BEDBA069002803DA404246F00106A06194
:10060000F00701D026F010068DB1A5F141001928A0
:1006100002D8203546F400664A4629462046266020
:100620004E46FFF77BFD60B1012804D100E010E0E9
:1006300006F1040978E7F61D26F0070000F1080925
:1006400072E7D4E9012128469047206A401C2062C5
:100650006AE7206ABDE8F09F9EFDFFFF2DE9F047A5
:100660000D4604469246994600F124080168880622
:1006700004D5E06921F01001216000E0012000278D
:10068000A84200DD471BA1697A1902EB0900081A8C
:10069000A0612068C00602D42046FFF785FD002631
:1006A00008E0D4E901211AF806009047206A401CAE
:1006B000761C20624E45F4DB2068C0060AD5204631
:1006C000FFF772FD06E0D4E9012130209047206A4F
:1006D000401C2062381EA7F10107F4DC07E0D4E9D2
:1006E000012118F805009047206A401C2062281E4E
:1006F000A5F10105F3DC2046FFF76BFD2168022020
:10070000090600D40120BDE8F0877546FFF7DAFD41
:10071000AE4605006946534620F00700854618B0EE
:1007200020B5FFF71FFDBDE820404FF000064FF059
:1007300000074FF000084FF0000B21F00701AC4616
:10074000ACE8C009ACE8C009ACE8C009ACE8C00935
:100750008D46704764070000000000106002000032
:040760000001000094
:04000005000000C532
:00000001FF
