:020000040000FA
:100000006002001045010000490100004B010000A2
:100010004D0100004F0100005101000000000000F0
:10002000000000000000000000000000530100007C
:1000300055010000000000005701000059010000B8
:100040005B0100005B0100005B0100005B01000040
:100050005B0100005B0100005B0100005B01000030
:100060005B0100005B0100005B0100005B01000020
:100070005B0100005B0100005B0100005B01000010
:100080005B0100005B0100005B0100005B01000000
:100090005B0100005B0100005B0100005B010000F0
:1000A0005B0100005B0100005B0100005B010000E0
:1000B0005B0100005B0100005B0100005B010000D0
:1000C0005B01000000F002F800F02EF80AA090E8B2
:1000D000000C82448344AAF10107DA4501D100F003
:1000E00023F8AFF2090EBAE80F0013F0010F18BFA2
:1000F000FB1A43F001031847FC0000000C0100004C
:100100000023002400250026103A28BF78C1FBD820
:10011000520728BF30C148BF0B6070471FB5AFF30F
:1001200000801FBD10B510BD00F029F81146FFF783
:10013000F5FF00F0C0F900F047F8FFF7F3FF00F01B
:100140004DF8000008480047FEE7FEE7FEE7FEE73F
:10015000FEE7FEE7FEE7FEE7FEE7FEE703480449A9
:10016000024A044B70470000C50000006000001008
:1001700060020010600000107047704770477546BD
:1001800000F028F8AE4605006946534620F0070007
:10019000854618B020B5FFF7E1FFBDE820404FF0DD
:1001A00000064FF000074FF000084FF0000B21F061
:1001B0000701AC46ACE8C009ACE8C009ACE8C0092E
:1001C000ACE8C0098D4670470446AFF30080204676
:1001D000FFF7B3FF004870470000001003494FF0DD
:1001E0001800ABBE704700000900000026000200A6
:1001F00070470000100500000000001060020000C1
:1002000000010000000000000000000000000000ED
:1002100000000000000000000000000000000000DE
:1002200000000000000000000000000000000000CE
:1002300000000000000000000000000000000000BE
:1002400000000000000000000000000000000000AE
:10025000000000000000000000000000000000009E
:10026000000000000000000000000000000000008E
:10027000000000000000000000000000000000007E
:10028000000000000000000000000000000000006E
:10029000000000000000000000000000000000005E
:1002A000000000000000000000000000000000004E
:1002B000000000000000000000000000000000003E
:1002C000000000000000000000000000000000002E
:1002D000000000000000000000000000000000001E
:1002E000000000000000000000000000000000000E
:1002F000000000000000000000000000FFFFFFFF02
:10030000002206E0002100E0491CB1F57A7FFBDB0A
:10031000521C8242F6D3704710B504467848C06933
:1003200040F4FF007649C8610846806940EAC4305D
:1003300088610846C06940F48060C86108468069E9
:1003400040F4006088616420FFF7DAFF6C48C06900
:1003500040F400606A49C86110BD00B56848006893
:1003600040F4FF00664908600846006840F4806079
:1003700008600846006840F4006008603820FFF715
:10038000CBFF0E20FFF7C8FF0120FFF7C5FF80203D
:10039000FFF7C2FF00BD10B504465948C06940F4DC
:1003A000FF005749C8610846806940EAC430886147
:1003B0000846806940F4806088610846806940F49E
:1003C000006088616420FFF79BFF4D48C06940F4DE
:1003D00000604B49C86110BD10B5044603E02078A9
:1003E000FFF7D9FF641C20780028F8D110BD30B584
:1003F00004467CB10A20B4FBF0F52846FFF7F7FF6E
:100400000A20B4FBF0F100FB11403030C5B22846A1
:10041000FFF7C1FF30BD10B5044600BF3948007D6D
:1004200000200028FAD1374804706420FFF768FFE5
:1004300010BD00BF3348007D10F0010FFAD03148E5
:10044000007870473048006840F050002E4908603E
:100450002E48006840F008002C49C439C1F8C40097
:100460000020C1F80C010846D0F8A80120F0C00017
:10047000C1F8A8012348007B40F00300214908731C
:100480000846007B40F080000873002008710620B9
:100490000870084690F8280040F0C10081F8280054
:1004A0000846007A40F0070008720846007B20F0FA
:1004B00080000873704710B5FFF7C4FFFFF74DFFCA
:1004C00000BFFFF7B6FF04462046FFF764FF204653
:1004D000FFF7A1FF2E2CF4D1002010BD10B504466B
:1004E00003E02078FFF797FF641C20780028F8D1FC
:1004F0000D20FFF790FF0A20FFF78DFF10BD0000D1
:1005000000C0092000C0004000C00240C4C00F402D
:04000005000000C532
:00000001FF
