:020000040000FA
:100000006002001045010000490100004B010000A2
:100010004D0100004F0100005101000000000000F0
:10002000000000000000000000000000530100007C
:1000300055010000000000005701000059010000B8
:100040005B0100005B0100005B0100005B01000040
:100050005B0100005B0100005B0100005B01000030
:100060005B0100005B0100005B0100005B01000020
:100070005B0100005B0100005B0100005B01000010
:100080005B0100005B0100005B0100005B01000000
:100090005B0100005B0100005B0100005B010000F0
:1000A0005B0100005B0100005B0100005B010000E0
:1000B0005B0100005B0100005B0100005B010000D0
:1000C0005B01000000F002F800F02EF80AA090E8B2
:1000D000000C82448344AAF10107DA4501D100F003
:1000E00023F8AFF2090EBAE80F0013F0010F18BFA2
:1000F000FB1A43F001031847680200007802000071
:100100000023002400250026103A28BF78C1FBD820
:10011000520728BF30C148BF0B6070471FB5AFF30F
:1001200000801FBD10B510BD00F0EAF81146FFF7C2
:10013000F5FF00F089F800F0CEF8FFF7F3FF00F0CC
:1001400005F9000008480047FEE7FEE7FEE7FEE786
:10015000FEE7FEE7FEE7FEE7FEE7FEE703480449A9
:10016000024A044B70470000C50000006000001008
:100170006002001060000010002207E0002100E093
:10018000491C41F270739942FAD3521C8242F5D352
:10019000704740214A4AD16100BF4A49C96811F0FD
:1001A000020FFAD04749886000BF4649C96811F07C
:1001B000100FFAD14021424A9161704742480068CD
:1001C00040F480604049C439C1F8C4004FF4401085
:1001D000C1F8A8013D48006840F400403B49086070
:1001E0000846006840F4003008600846006840F4A3
:1001F000002008603248006840F040003049086044
:100200000B20304908600846006820F03000086084
:10021000142008610846006820F47F400860084602
:10022000006820F0C00008600846406820F0010027
:1002300048600846406820F004004860084640686E
:1002400040F002004860704700B5FFF7B7FF40F686
:100250000140FFF79EFF40F60F20FFF79AFF40F6A0
:100260000330FFF796FF40F60F10FFF792FF25E0EF
:1002700040F20110FFF78DFF40F20720FFF789FFE2
:1002800040F20630FFF785FF4FF48160FFF781FFF2
:10029000C820FFF771FF4FF48670FFF77AFF40F236
:1002A0000B20FFF776FF40F20D30FFF772FF40F2B0
:1002B0000E40FFF76EFFC820FFF75EFFD8E7000093
:1002C00000C0092000000340C4C00F4000C002402D
:1002D0007047704770470446AFF300802046FFF731
:1002E0002CFF00000048704700000010704700001D
:1002F000000000000000000000000000FFFFFFFF02
:100300007546FFF7EFFFAE4605006946534620F0FD
:100310000700854618B020B5FFF720FFBDE8204054
:100320004FF000064FF000074FF000084FF0000BB1
:1003300021F00701AC46ACE8C009ACE8C009ACE864
:10034000C009ACE8C0098D467047000003494FF072
:100350001800ABBE7047000095FFFFFF26000200AB
:1003600070030000000000106002000000010000A7
:04000005000000C532
:00000001FF
