:020000040000FA
:100000006002001045010000490100004B010000A2
:100010004D0100004F0100005101000000000000F0
:10002000000000000000000000000000530100007C
:1000300055010000000000005701000059010000B8
:100040005B0100005B0100005B0100005B01000040
:100050005B0100005B0100005B0100005B01000030
:100060005B0100005B0100005B0100005B01000020
:100070005B0100005B0100005B0100005B01000010
:100080005B0100005B0100005B0100005B01000000
:100090005B0100005B0100005B0100005B010000F0
:1000A0005B0100005B0100005B0100005B010000E0
:1000B0005B0100005B0100005B0100005B010000D0
:1000C0005B01000000F002F800F02EF80AA090E8B2
:1000D000000C82448344AAF10107DA4501D100F003
:1000E00023F8AFF2090EBAE80F0013F0010F18BFA2
:1000F000FB1A43F001031847FC0000000C0100004C
:100100000023002400250026103A28BF78C1FBD820
:10011000520728BF30C148BF0B6070471FB5AFF30F
:1001200000801FBD10B510BD00F029F81146FFF783
:10013000F5FF00F080FA00F047F8FFF7F3FF00F05A
:100140004DF8000008480047FEE7FEE7FEE7FEE73F
:10015000FEE7FEE7FEE7FEE7FEE7FEE703480449A9
:10016000024A044B70470000C50000006000001008
:1001700060020010600000107047704770477546BD
:1001800000F028F8AE4605006946534620F0070007
:10019000854618B020B5FFF7E1FFBDE820404FF0DD
:1001A00000064FF000074FF000084FF0000B21F061
:1001B0000701AC46ACE8C009ACE8C009ACE8C0092E
:1001C000ACE8C0098D4670470446AFF30080204676
:1001D000FFF7B3FF004870470000001003494FF0DD
:1001E0001800ABBE704700000900000026000200A6
:1001F0007047000088060000000000106002000048
:1002000000010000000000000000000000000000ED
:1002100000000000000000000000000000000000DE
:1002200000000000000000000000000000000000CE
:1002300000000000000000000000000000000000BE
:1002400000000000000000000000000000000000AE
:10025000000000000000000000000000000000009E
:10026000000000000000000000000000000000008E
:10027000000000000000000000000000000000007E
:10028000000000000000000000000000000000006E
:10029000000000000000000000000000000000005E
:1002A000000000000000000000000000000000004E
:1002B000000000000000000000000000000000003E
:1002C000000000000000000000000000000000002E
:1002D000000000000000000000000000000000001E
:1002E000000000000000000000000000000000000E
:1002F000000000000000000000000000FFFFFFFF02
:10030000002207E0002100E0491C40F6B833994282
:10031000FADB521C8242F5D3704710B50446C94837
:10032000C06940F4FF00C749C8610846806940EAD7
:10033000C43088610846C06940F48060C8610846DE
:10034000806940F4006088616420FFF7D9FFBD48F0
:10035000C06940F40060BB49C86110BD00B5B94830
:10036000006840F4FF00B74908600846006840F4A0
:10037000806008600846006840F40060086038202B
:10038000FFF7CBFF0E20FFF7C8FF0120FFF7C5FFE7
:100390008020FFF7C2FF00BD10B50446A948C06920
:1003A00040F4FF00A749C8610846806940EAC430AC
:1003B00088610846806940F48060886108468069E9
:1003C00040F4006088616420FFF79AFF9D48C0698F
:1003D00040F400609B49C86110BD10B5044603E0BD
:1003E0002078FFF7D9FF641C20780028F8D110BDD1
:1003F00030B504467CB10A20B4FBF0F52846FFF77F
:10040000F7FF0A20B4FBF0F100FB11403030C5B219
:100410002846FFF7C1FF30BD10B58A48006C40F098
:10042000F000884908640846006C20F00F0008645A
:100430000846006C00F00F0400BF072C1AD00B2CEC
:1004400011D00D2C08D00E2C1BD17FA0FFF7C5FFBB
:100450006420FFF755FF14E07CA0FFF7BEFF642087
:10046000FFF74EFF0DE07AA0FFF7B7FF6420FFF71C
:1004700047FF06E077A0FFF7B0FF6420FFF740FFDB
:1004800000BF00BF10BD10B56E48006C40F0F0001A
:100490006C4908640846006C20F00F0008640846A8
:1004A000006C00F00F0400BF072C1AD00B2C11D0E9
:1004B0000D2C08D00E2C1BD167A0FFF78EFF6420F7
:1004C000FFF71EFF14E065A0FFF787FF6420FFF72A
:1004D00017FF0DE062A0FFF780FF6420FFF710FF19
:1004E00006E060A0FFF779FF6420FFF709FF00BF77
:1004F00000BF10BD10B55348006C40F0F0005149EA
:1005000008640846006C20F00F0008640846006C80
:1005100000F00F0400BF072C1AD00B2C11D00D2CAB
:1005200008D00E2C1BD150A0FFF757FF6420FFF717
:10053000E7FE14E04DA0FFF750FF6420FFF7E0FE58
:100540000DE04BA0FFF749FF6420FFF7D9FE06E05E
:1005500048A0FFF742FF6420FFF7D2FE00BF00BFB4
:1005600010BD10B53748006C40F0F0003549086404
:100570000846006C20F00F0008640846006C00F08C
:100580000F0400BF072C1AD00B2C11D00D2C08D053
:100590000E2C1BD138A0FFF720FF6420FFF7B0FE20
:1005A00014E036A0FFF719FF6420FFF7A9FE0DE065
:1005B00033A0FFF712FF6420FFF7A2FE06E031A090
:1005C000FFF70BFF6420FFF79BFE00BF00BF10BDCD
:1005D00010B51C48006C40F00F001A49086408462A
:1005E000006C20F0F00008640846006C00F0F00495
:1005F0002411072C17D00B2C0FD00D2C07D00E2C4C
:1006000017D1FFF7AEFF6420FFF77AFE11E0FFF786
:1006100071FF6420FFF774FE0BE0FFF734FF6420E6
:10062000FFF76EFE05E0FFF7F7FE6420FFF768FEB8
:1006300000BF00BF10BD00B5FFF790FE01E0FFF75F
:10064000C7FFFCE700C00920430000004400000091
:10065000450000004600000038000000390000009E
:10066000410000004200000034000000350000009E
:1006700036000000370000003000000031000000AC
:0806800032000000330000000D
:04000005000000C532
:00000001FF
