:020000040000FA
:100000006002001045010000490100004B010000A2
:100010004D0100004F0100005101000000000000F0
:10002000000000000000000000000000530100007C
:1000300055010000000000005701000059010000B8
:100040005B0100006B0400005B0100005B0100002D
:100050005B0100005B0100005B0100005B01000030
:100060005B0100005B0100005B0100005B01000020
:100070005B0100005B0100005B0100005B01000010
:100080005B0100005B0100005B0100005B01000000
:100090005B0100005B0100005B0100005B010000F0
:1000A0005B0100005B0100005B0100005B010000E0
:1000B0005B0100005B0100005B0100005B010000D0
:1000C0005B01000000F002F800F02EF80AA090E8B2
:1000D000000C82448344AAF10107DA4501D100F003
:1000E00023F8AFF2090EBAE80F0013F0010F18BFA2
:1000F000FB1A43F001031847FC0000000C0100004C
:100100000023002400250026103A28BF78C1FBD820
:10011000520728BF30C148BF0B6070471FB5AFF30F
:1001200000801FBD10B510BD00F029F81146FFF783
:10013000F5FF00F079F900F047F8FFF7F3FF00F062
:100140004DF8000008480047FEE7FEE7FEE7FEE73F
:10015000FEE7FEE7FEE7FEE7FEE7FEE703480449A9
:10016000024A044B70470000C50000006000001008
:1001700060020010600000107047704770477546BD
:1001800000F028F8AE4605006946534620F0070007
:10019000854618B020B5FFF7E1FFBDE820404FF0DD
:1001A00000064FF000074FF000084FF0000B21F061
:1001B0000701AC46ACE8C009ACE8C009ACE8C0092E
:1001C000ACE8C0098D4670470446AFF30080204676
:1001D000FFF7B3FF004870470000001003494FF0DD
:1001E0001800ABBE704700000900000026000200A6
:1001F00070470000CC040000000000106002000006
:1002000000010000000000000000000000000000ED
:1002100000000000000000000000000000000000DE
:1002200000000000000000000000000000000000CE
:1002300000000000000000000000000000000000BE
:1002400000000000000000000000000000000000AE
:10025000000000000000000000000000000000009E
:10026000000000000000000000000000000000008E
:10027000000000000000000000000000000000007E
:10028000000000000000000000000000000000006E
:10029000000000000000000000000000000000005E
:1002A000000000000000000000000000000000004E
:1002B000000000000000000000000000000000003E
:1002C000000000000000000000000000000000002E
:1002D000000000000000000000000000000000001E
:1002E000000000000000000000000000000000000E
:1002F000000000000000000000000000FFFFFFFF02
:100300006548006840F008006349C439C1F8C4007A
:1003100050206249086083206149087300200871F9
:100320001A20087003200873072008727047002203
:1003300007E0002100E0491C41F270739942FAD3B2
:10034000521C8242F5D3704710B5044600BF544892
:10035000007D10F0200FFAD0514804700A20FFF7FA
:10036000E6FF10BD10B5044603E02078FFF7ECFF70
:10037000641C20780028F8D110BD00BF4848007DDB
:1003800010F0010FFAD046480078704730B50446A7
:100390007CB10A20B4FBF0F52846FFF7F7FF0A20EE
:1003A000B4FBF0F100FB11403030C5B22846FFF736
:1003B000CBFF30BD10B5012000F065F800BF012073
:1003C000002805DAC00037496FF00202885404E0C3
:1003D0000120C00034490122885400BF00BF012021
:1003E0008040012149094FF0E02202EB8101C1F870
:1003F000000100BF10BD2848006840F002002649F7
:10040000C439C1F8C40025480068244908600020A8
:100410004FF04021C86025488861032048610220D0
:10042000486001204860704710B52148006A40F4D8
:1004300000201F490862FFF763FFFFF7DCFFFFF7AB
:10044000B9FF11E01A48806B40F400201849886316
:100450006420FFF76CFF1648C06B40F4002014497D
:10046000C8636420FFF763FFECE710B511A0FFF746
:1004700079FF6420FFF75BFF01204FF04021086007
:1004800000F001F810BD00F01F0101228A400E4962
:10049000430941F823207047C4C00F4000C0024008
:1004A00000C0004018ED00E000E400E0808D5B003B
:1004B00000C00920496E74657272757074204F63B4
:0C04C000637572656420000080E200E0BB
:04000005000000C532
:00000001FF
