:020000040000FA
:100000006002001045010000490100004B010000A2
:100010004D0100004F0100005101000000000000F0
:10002000000000000000000000000000530100007C
:1000300055010000000000005701000059010000B8
:100040005B0100005B0100005B0100005B01000040
:100050005B0100005B0100005B0100005B01000030
:100060005B0100005B0100005B0100005B01000020
:100070005B0100005B0100005B0100005B01000010
:100080005B0100005B0100005B0100005B01000000
:100090005B0100005B0100005B0100005B010000F0
:1000A0005B0100005B0100005B0100005B010000E0
:1000B0005B0100005B0100005B0100005B010000D0
:1000C0005B01000000F002F800F02EF80AA090E8B2
:1000D000000C82448344AAF10107DA4501D100F003
:1000E00023F8AFF2090EBAE80F0013F0010F18BFA2
:1000F000FB1A43F001031847E0020000F002000081
:100100000023002400250026103A28BF78C1FBD820
:10011000520728BF30C148BF0B6070471FB5AFF30F
:1001200000801FBD10B510BD00F01CF91146FFF78F
:10013000F5FF00F0ACF800F0CEF8FFF7F3FF00F0A9
:1001400037F9000008480047FEE7FEE7FEE7FEE754
:10015000FEE7FEE7FEE7FEE7FEE7FEE703480449A9
:10016000024A044B70470000C50000006000001008
:100170006002001060000010002206E0002100E094
:10018000491CB1F57A7FFBDB521C8242F6D37047E3
:1001900010B504464C48C06940F4FF004A49C861A4
:1001A0000846806940EAC43088610846C06940F466
:1001B0008060C8610846806940F4006088616420FE
:1001C000FFF7DAFF4048C06940F400603E49C8616B
:1001D00010BD00B53C48006840F4FF003A49086093
:1001E0000846006840F4806008600846006840F4F3
:1001F000006008603820FFF7CBFF0E20FFF7C8FF34
:100200000120FFF7C5FF8020FFF7C2FF00BD10B53A
:1002100004462D48C06940F4FF002B49C8610846D8
:10022000806940EAC43088610846806940F4806093
:1002300088610846806940F4006088616420FFF7A7
:100240009BFF2148C06940F400601F49C86110BD90
:1002500010B5044603E02078FFF7D9FF641C20782E
:100260000028F8D110BD30B504467CB10A20B4FB9B
:10027000F0F52846FFF7F7FF0A20B4FBF0F100FB8A
:1002800011403030C5B22846FFF7C1FF30BD10B570
:1002900086B014220D4901A800F032F840F2D24491
:1002A000FFF797FF01A8FFF7D3FF6420FFF764FF74
:1002B000C020FFF76DFF2046FFF7D5FF6420FFF752
:1002C0005BFF002006B010BD00C00920C403000081
:1002D0007047704770470446AFF300802046FFF731
:1002E0002CFF00000048704700000010704700001D
:1002F000000000000000000000000000FFFFFFFF02
:1003000010B5203AC0F00B80B1E81850203AA0E8B0
:100310001850B1E81850A0E81850BFF4F5AF5FEAE4
:10032000027C24BFB1E81850A0E8185044BF18C997
:1003300018C0BDE810405FEA827C24BF51F8043B3E
:1003400040F8043B08BF7047D20728BF31F8023B92
:1003500048BF11F8012B28BF20F8023B48BF00F826
:10036000012B70477546FFF7BDFFAE460500694695
:10037000534620F00700854618B020B5FFF7EEFE83
:10038000BDE820404FF000064FF000074FF0000896
:100390004FF0000B21F00701AC46ACE8C009ACE817
:1003A000C009ACE8C009ACE8C0098D467047000040
:1003B00003494FF01800ABBE7047000031FFFFFF4C
:1003C0002600020041666E616E5F4A686164776173
:1003D0006C655F0000000000E803000000000010F2
:0803E0006002000000010000B2
:04000005000000C532
:00000001FF
