:020000040000FA
:100000006002001045010000490100004B010000A2
:100010004D0100004F0100005101000000000000F0
:10002000000000000000000000000000530100007C
:1000300055010000000000005701000059010000B8
:100040005B0100005B0100005B0100005B01000040
:100050005B0100005B0100005B0100005B01000030
:100060005B0100005B0100005B0100005B01000020
:100070005B0100005B0100005B0100005B01000010
:100080005B0100005B0100005B0100005B01000000
:100090005B0100005B0100005B0100005B010000F0
:1000A0005B0100005B0100005B0100005B010000E0
:1000B0005B0100005B0100005B0100005B010000D0
:1000C0005B01000000F002F800F02EF80AA090E8B2
:1000D000000C82448344AAF10107DA4501D100F003
:1000E00023F8AFF2090EBAE80F0013F0010F18BFA2
:1000F000FB1A43F001031847FC0000000C0100004C
:100100000023002400250026103A28BF78C1FBD820
:10011000520728BF30C148BF0B6070471FB5AFF30F
:1001200000801FBD10B510BD00F029F81146FFF783
:10013000F5FF00F0A4F900F047F8FFF7F3FF00F037
:100140004DF8000008480047FEE7FEE7FEE7FEE73F
:10015000FEE7FEE7FEE7FEE7FEE7FEE703480449A9
:10016000024A044B70470000C50000006000001008
:1001700060020010600000107047704770477546BD
:1001800000F028F8AE4605006946534620F0070007
:10019000854618B020B5FFF7E1FFBDE820404FF0DD
:1001A00000064FF000074FF000084FF0000B21F061
:1001B0000701AC46ACE8C009ACE8C009ACE8C0092E
:1001C000ACE8C0098D4670470446AFF30080204676
:1001D000FFF7B3FF004870470000001003494FF0DD
:1001E0001800ABBE704700000900000026000200A6
:1001F00070470000D40400000000001060020000FE
:1002000000010000000000000000000000000000ED
:1002100000000000000000000000000000000000DE
:1002200000000000000000000000000000000000CE
:1002300000000000000000000000000000000000BE
:1002400000000000000000000000000000000000AE
:10025000000000000000000000000000000000009E
:10026000000000000000000000000000000000008E
:10027000000000000000000000000000000000007E
:10028000000000000000000000000000000000006E
:10029000000000000000000000000000000000005E
:1002A000000000000000000000000000000000004E
:1002B000000000000000000000000000000000003E
:1002C000000000000000000000000000000000002E
:1002D000000000000000000000000000000000001E
:1002E000000000000000000000000000000000000E
:1002F000000000000000000000000000FFFFFFFF02
:10030000002207E0002100E0491C41F2707399428D
:10031000FADB521C8242F5D3704710B50446694897
:10032000C06940F4FF006749C8610846806940EA37
:10033000C43088610846C06940F48060C8610846DE
:10034000806940F4006088616420FFF7D9FF5D4850
:10035000C06940F400605B49C86110BD00B55948F0
:10036000006840F4FF00574908600846006840F400
:10037000806008600846006840F40060086038202B
:10038000FFF7CBFF0E20FFF7C8FF0120FFF7C5FFE7
:100390008020FFF7C2FF00BD10B504464948C06980
:1003A00040F4FF004749C8610846806940EAC4300C
:1003B00088610846806940F48060886108468069E9
:1003C00040F4006088616420FFF79AFF3D48C069EF
:1003D00040F400603B49C86110BD10B5044603E01D
:1003E0002078FFF7D9FF641C20780028F8D110BDD1
:1003F00030B504467CB10A20B4FBF0F52846FFF77F
:10040000F7FF0A20B4FBF0F100FB11403030C5B219
:100410002846FFF7C1FF30BD20202B49086003E0CC
:10042000032029499C3908602748006810F0400FD4
:10043000F6D0012024499439086024482449C1F8A1
:1004400084000120224980310860AA2020498C3193
:1004500008605520086000BF1D488830006810F013
:10046000806FF9D003201A4980310860AA2018490A
:10047000C1F88C00552016498C310860704710B5C2
:1004800000241048006A40F0FF600E49086217E03F
:100490000C48806B40F0FF600A4988636420FFF7D6
:1004A0002FFF0848C06B40F0FF600649C863642016
:1004B000FFF726FF0A2C02D1FFF7AEFF00E0641C15
:1004C000E6E7000000C00920A0C10F40630005005E
:0404D00000C00F4019
:04000005000000C532
:00000001FF
