:020000040000FA
:100000006002001045010000490100004B010000A2
:100010004D0100004F0100005101000000000000F0
:10002000000000000000000000000000530100007C
:1000300055010000000000005701000059010000B8
:100040005B0100005B0100005B0100005B01000040
:100050005B0100005B0100005B0100005B01000030
:100060005B0100005B0100005B0100005B01000020
:100070005B0100005B0100005B0100005B01000010
:100080005B0100005B0100005B0100005B01000000
:100090005B0100005B0100005B0100005B010000F0
:1000A0005B0100005B0100005B0100005B010000E0
:1000B0005B0100005B0100005B0100005B010000D0
:1000C0005B01000000F002F800F02EF80AA090E8B2
:1000D000000C82448344AAF10107DA4501D100F003
:1000E00023F8AFF2090EBAE80F0013F0010F18BFA2
:1000F000FB1A43F001031847BC010000CC010000CB
:100100000023002400250026103A28BF78C1FBD820
:10011000520728BF30C148BF0B6070471FB5AFF30F
:1001200000801FBD10B510BD00F089F81146FFF723
:10013000F5FF00F02EF800F0A7F8FFF7F3FF00F04E
:10014000ADF8000008480047FEE7FEE7FEE7FEE7DF
:10015000FEE7FEE7FEE7FEE7FEE7FEE703480449A9
:10016000024A044B70470000C50000006000001008
:100170006002001060000010002207E0002100E093
:10018000491C41F270739942FADB521C8242F5D34A
:10019000704700B52748006A40F0FF6025490862B3
:1001A0000846C06B40F0FF60C8630846006A40F034
:1001B000006008620846C06B40F00060C8630846F3
:1001C000006C20F4006008640846006C20F4805045
:1001D00008642EE01748406D10F4805F12D0154877
:1001E000806B40F0FF60134988636420FFF7C4FF11
:1001F0001048C06B40F0FF600E49C8636420FFF7F1
:10020000BBFF16E00B48406D10F4006F11D0094899
:10021000806B40F00060074988636420FFF7ACFF03
:100220000448C06B40F000600249C8636420FFF7D7
:10023000A3FFCFE700C0092070477047704775469D
:1002400000F028F8AE4605006946534620F0070046
:10025000854618B020B5FFF781FFBDE820404FF07C
:1002600000064FF000074FF000084FF0000B21F0A0
:100270000701AC46ACE8C009ACE8C009ACE8C0096D
:10028000ACE8C0098D4670470446AFF300802046B5
:10029000FFF753FF004870470000001003494FF07C
:1002A0001800ABBE704700000900000026000200E5
:1002B0007047000000030000000000106002000012
:1002C000000100000000000000000000000000002D
:1002D000000000000000000000000000000000001E
:1002E000000000000000000000000000000000000E
:1002F000000000000000000000000000FFFFFFFF02
:04000005000000C532
:00000001FF
